:1000000000308A006C2A0000FF00030E8301A1006B
:100010007F08A0000A08A8008A01A00E0408A20018
:100020007708A3007808A4007908A5007A08A6003C
:100030007B08A700831383128C308400801C222845
:100040008C183528220884002308F7002408F800BB
:100050002508F9002608FA002708FB0028088A006E
:10006000210E8300FF0E7F0E09008A1147280830F9
:10007000BD02031C46283D3084000310800C00089C
:100080000319462844286400800B43280034831653
:1000900086128312861664000930BC006D30BD00E4
:1000A0003720BC0B4E282C08BB00BB0803195E2868
:1000B0006400000000000000BB0355288316861270
:1000C000831286128C108A1122283A30840000088C
:1000D00003197C280230F800BF30F7006400F70BEA
:1000E0006E28F80B6C289630F700F70B7528000087
:1000F00000006400800B6A280034B901E130AC00D4
:100100006430BA0065202B08023C031D89280330A7
:10011000AB00AB08031D8E280330AB002B08FE3C60
:10012000031D9428FD30AB000330BA006520831610
:100130000610831206101308930183161418A228C0
:1001400083129D2883121308AA00AA098316061099
:10015000831206140330BA0065202B08033C031DEC
:10016000DB280108A03C031CBE288316051083125F
:1001700005108316851083128514C6288316051072
:100180008312051083168510831285100108A03C88
:10019000031CD32883168513831285138316051336
:1001A00083120517DB2883160513831205138316A4
:1001B0008513831285132B08FD3C031D09290108B3
:1001C000A03C031CEC288316051383120513831629
:1001D000851383128517F4288316051383120513DC
:1001E00083168513831285130108A03C031C012983
:1001F000831685108312851083160510831205144B
:1002000009298316051083120510831685108312A1
:100210008510AB08031D1E298316051083120510D7
:100220008316851083128510831605138312051318
:100230008316851383128513B90A1F29B90139085A
:10024000633C031C592983160610831206101308F9
:100250009301831614182E29831229298312130857
:10026000AA00AA098316061083120614AA1D3A29A9
:10027000AB01AA282A1C3F290330AB00AA282A1F59
:100280004429FD30AB00AA28AA1C49290330AB0041
:10029000AA28AA1E4E29FD30AB00AA282A1D5329E0
:1002A0000330AB00AA282A1E5829FD30AB00AA282B
:1002B000AA28003483168510831285108316051032
:1002C00083120514831605138312051383168513F1
:1002D000831285170230B9009630BA006520B90B39
:1002E0006C2983160510831205108316851083125E
:1002F00085148316851383128513831605138312C1
:1003000005176430BA0065208316051083120510A6
:100310008316851083128510831605138312051327
:1003200083168513831285138030AC0083168510E5
:100330008312851083160510831205148316851306
:100340008312851383160513831205170230B90033
:10035000BE30BA006520B90BA8294930AC0083161D
:1003600005108312051083168510831285108316DD
:100370008513831285138316051383120517BE3068
:10038000BA0065208030AC00831685138312851374
:1003900083160513831205178316851083128510A3
:1003A00083160510831205140230B9009630BA0086
:1003B0006520B90BD6294930AC008316851383120A
:1003C00085138316051383120517831605108312F0
:1003D00005108316851083128510BE30BA00652083
:1003E0008030AC00831685138312851383160513A2
:1003F0008312051783168510831285108316051046
:10040000831205146430BA0065202A08FE390319E6
:10041000182A1308930183161418102A83120B2A22
:1004200083121308AA00AA090330BA006520052A1E
:100430008316051083120510831685108312851408
:1004400083160513831205138316851383128517EC
:10045000FA30BA006520E130AC00831685108312B3
:100460008510831605108312051483160513831255
:10047000051383168513831285172A08FE3903197D
:10048000502A1308930183161418482A8312432A0A
:1004900083121308AA00AA090330BA0065203D2A76
:1004A000831605108312051083168510831285109C
:1004B0008316051383120513831685138312851380
:1004C0000230B9009630BA006520B90B622AFD30BF
:1004D000AB007D208A11CF2B84011F308305703043
:1004E00083168F001F129F121B0880399B00073054
:1004F0009C008312AB0183161F129F121B088039C8
:1005000074389B001F1383121F179F1783169F13A6
:1005100083121F14941283160611861406123130AA
:10052000831294000030831694000108C7390838FC
:1005300081003030831290007830F8000638920045
:100540008C308316920072308F00051383120513CE
:1005500083168513831285138316051083120510E5
:100560008316851083128510B101B001B301B20169
:100570008030AC00AF0183168C14C03083128B0422
:1005800083160611831206110830B900FA30BA003A
:100590006520B90BC62A2030F8001F08C739780437
:1005A0009F000130BA0065201F151F19D52A1E08AB
:1005B000F700F70CF70C3F30F7057708643EB800FA
:1005C0001030F8001F08C73978049F000130BA00C6
:1005D000652020302D02B9001F151F19ED2A1E08B5
:1005E000F700F70CF70C3F30F70577083907AE0036
:1005F000C830AD000108801F002BB11F082B022B53
:10060000B11B112BB108031D082B3002031C112B49
:100610008316851083128510831605108312051426
:10062000192B83160510831205108316851083126B
:1006300085100108801F1F2BB31F272B212BB31BF5
:10064000302BB308031D272B3202031C302B8316DB
:100650008513831285138316051383120517382B10
:1006600083160513831205138316851383128513CE
:1006700064000130BA0065200930B900A9018B1B64
:10068000A9178B136D30BD003720A91B8B17B90B31
:100690003E2B2A08B7008316061083120610130893
:1006A000930183161418562B8312512B83121308AF
:1006B000AA00AA098316061083120614B501B40114
:1006C0003408063C031C722B2A08F7003408F80093
:1006D00003196E2B0310F70CF80B6A2B7718B50A69
:1006E000B40A602B3508043C03189E2B83160510B2
:1006F0008312051083168510831285148316051343
:100700008312051383168513831285170230B900EF
:100710009630BA006520B90B882B83160513831217
:100720000513831685138312851383160510831210
:10073000051083168510831285109D2BAA1FCF2BC1
:1007400083160513831205138316851383128517E9
:1007500083160510831205108316851083128514E5
:100760000230B900C830BA006520B90BB22B83162D
:1007700005138312051383168513831285138316BD
:1007800005108312051083168510831285106430BE
:10079000BA0065207D206430BA0065205A292D08F2
:1007A0003802031CAD03AA1DE72B8030AC00FA0110
:1007B0002D08B0007A08B100FA012D08B2007A08BD
:1007C000B300AB012F0FE52BE62BAF0AFA2A2A1C48
:1007D000F52B5330AC00B101B001FA012E08B20084
:1007E0007A08B3000330AB00FA2A2A1F032CAD307D
:1007F000AC00B301B201FA012E08B0007A08B100D2
:10080000FD30AB00FA2AAA1C152C6730AC0046302C
:100810002D02FA01B0007A08B100FA012D08B200E9
:100820007A08B3000230AB00FA2AAA1E272C9930AE
:10083000AC0046302D02FA01B2007A08B300FA018A
:100840002D08B0007A08B100FE30AB00FA2A2A1D4C
:100850003D2C7630AC0014302D02FA01B0007A083D
:10086000B100FA012D08B2007A08B3000230AB00E3
:100870002F0F3B2C3C2CAF0AFA2A2A1E532C8A300D
:10088000AC0014302D02FA01B2007A08B300FA016C
:100890002D08B0007A08B1000230AB002F0F512CA8
:1008A000522CAF0AFA2A2B08033C03195B2C2B08A5
:1008B000FD3C031D802C2F08323C03187D2C831631
:1008C0000510831205108316851083128514831674
:1008D000051383120513831685138312851764305D
:1008E000BA0065202F08FA3C031C7A2C2D08AA3C7C
:1008F00003187D2C3230BA006520AF01C830AD003E
:04090000FA2A63006C
:04400E00383FFC3FFC
:00000001FF
;PIC16F88
