:1000000000308A00B12800000A108A100A11820705
:100010000A340D3400340A108A100A1182072A3477
:100020002A342A340A340D3400340A108A100A1192
:100030008207733465346E3473346F347234203411
:100040002534753420342D342034253475340A3465
:100050000D34003427308400000803194028013093
:10006000F800BF30F7006400F70B3328F80B312895
:100070004A30F700F70B3A2800006400800B2F2865
:10008000003483168611831286110830F8000000B0
:1000900000000000F8175B28F813A90C0318861558
:1000A000031C861178175B287813F80B4D28000085
:1000B0000000000086151C308400840B5D280000C1
:1000C00000006400F81B4C28781B542800342A08D0
:1000D000F801290203186F282908F7007B28F70187
:1000E0000830AB00A90DF70D2A0877020318F700B6
:1000F000F80DAB0B7228003478082708A90064308B
:10010000AA0067207708A70078083030031D8F28E1
:10011000A81C9628A8199628281A20309228A811D9
:1001200028122814F8077808A90041202708A900F8
:100130000A30AA0067207708A70078083030031D2E
:10014000A728A819AB28281CAB28281A2030F807A4
:100150007808A90041203030A7072708A9004120CE
:10016000003484011F308305603083168F008611B0
:100170008312861583161F129F121B0880399B005D
:1001800007309C001F129F121B0880397F389B008C
:100190001F1383121F179F1783169F1383121F1499
:1001A00083160108C7390838810083129001003096
:1001B000F800920000308316920007309C0005087A
:1001C00064000230F700F70BE328000000001C0871
:1001D00083120D1383169D0102308312A600FA309C
:1001E000A7002A20A60BEF28941283160611861466
:1001F0000616353083129400403083169400831223
:10020000A60126080420003803190A29A60AA90015
:10021000412001296430A7002A20A60126080B20CE
:10022000003803191729A60AA90041200E296430B5
:10023000A7002A20A5012508063C031C5729250DE7
:10024000F700F70DF70DF830F7051F08C7397704E9
:100250009F006430A7002A201F151F192D291E0892
:10026000A400A60126081520A60AF700A90041202F
:1002700007302602031D32292508A7001B30A800DD
:100280007C202030A90041202D30A90041202030C1
:10029000A90041202408A7001B30A8007C200A30B8
:1002A000A90041200D30A9004120A50A1B29A20167
:1002B0000030F8001F08C73978049F00A3016400CC
:1002C0000230F700F70B6229000000001F151F190C
:1002D00067291E08A4000830F8001F08C7397804F1
:1002E0009F002408453C031C7E292408323C031847
:1002F0007D2921080139A3047E2923141F151F1904
:100300007F291E08A4001030F8001F08C7397804A0
:100310009F002408453C031C96292408323C0318FE
:10032000952921080239A3049629A3141F151F1922
:1003300097291E08A4001830F8001F08C739780450
:100340009F002408453C031CAE292408323C0318B6
:10035000AD2921080439A304AE2923151F151F193F
:10036000AF291E08A4002030F8001F08C739780400
:100370009F002408453C031CC6292408323C03186E
:10038000C52921080839A304C629A3151F151F195B
:10039000C7291E08A4002830F8001F08C7397804B0
:1003A0009F002408453C031CDE292408323C031826
:1003B000DD2921081039A304DE2923161F151F1972
:1003C000DF291E08A4003030F8001F08C739780460
:1003D0009F002408453C031CF6292408323C0318DE
:1003E000F52921082039A304F629A3161F151F1982
:1003F000F7291E08A4002408453C031C082A2408E9
:10040000323C0318072A21084039A304082A23177D
:100410002308A1008316061483120618142A220F3B
:10042000122A132AA20A152AA20122080A3C031C36
:10043000A317A3092308930083161418212A8312F3
:080440001C2A831258296300F5
:04400E00383FFC3FFC
:00000001FF
;PIC16F88
